:020000040800F2
:10000000E808002029020008691B00080315000801
:10001000651B0008DB0200085923000800000000EF
:10002000000000000000000000000000E51F0008C4
:10003000F908000800000000891C0008FD200008E5
:10004000430200084302000843020008430200087C
:10005000430200084302000843020008430200086C
:10006000430200084302000843020008DD050008BF
:100070004302000843020008050600084302000886
:10008000430200084302000843020008430200083C
:10009000430200084302000843020008430200082C
:1000A000430200084302000843020008430200081C
:1000B000430200084302000843020008430200080C
:1000C00043020008430200084302000843020008FC
:1000D00043020008430200084302000843020008EC
:1000E00043020008430200084302000843020008DC
:1000F00043020008430200084302000843020008CC
:1001000043020008430200084302000843020008BB
:1001100043020008430200084302000843020008AB
:10012000430200084302000843020008430200089B
:10013000430200084302000843020008430200088B
:10014000430200084302000843020008430200087B
:10015000430200084302000843020008430200086B
:10016000430200084302000843020008430200085B
:10017000430200084302000843020008430200084B
:10018000430200084302000800F002F800F03CF8C7
:100190000AA090E8000C82448344AAF10107DA45E2
:1001A00001D100F031F8AFF2090EBAE80F0013F0F8
:1001B000010F18BFFB1A43F001031847EC2300009E
:1001C0000C240000103A24BF78C878C1FAD852072E
:1001D00024BF30C830C144BF04680C6070470000C1
:1001E0000023002400250026103A28BF78C1FBD840
:1001F000520728BF30C148BF0B6070471FB502F0DF
:10020000CDF91FBD10B510BD00F031F81146FFF754
:10021000F5FF02F073F900F04FF803B4FFF7F2FFB7
:1002200003BC00F053F80000094880470948004724
:10023000FEE7FEE7FEE7FEE7FEE7FEE7FEE7FEE796
:10024000FEE7FEE704480549054A064B70470000F3
:100250000121000889010008E8020020E8080020C8
:10026000E8040020E8040020704770477047754696
:1002700000F028F8AE4605006946534620F0070016
:10028000854618B020B5FFF7DDFFBDE820404FF0F0
:1002900000064FF000074FF000084FF0000B21F070
:1002A0000701AC46ACE8C009ACE8C009ACE8C0093D
:1002B000ACE8C0098D4670470446AFF30080204685
:1002C000FFF7ABFF00487047880200200149182063
:1002D000ABBEFEE726000200704700BFFEE770B528
:1002E00000254FF0807400E0641E24B1802001F0EE
:1002F000C3FD0028F8D014B90325284670BD40F28C
:10030000FF5001F09BFD2846F8E700002DE9F04181
:10031000064600274348056801E04248056805F0A5
:1003200045000028F9D005F0040030B1032704206F
:1003300001F084FD3846BDE8F08105F0010028B1E8
:100340000127012001F07AFD3846F4E701F08EFD27
:10035000B04202D010273846EDE740F2FF5001F0DE
:100360006DFD002001F09CFD04462F48204008B997
:100370003846E0E704F0004008B11C20DBE704F059
:10038000804008B10920D6E704F0005008B10A20E7
:10039000D1E704F0805008B10B20CCE704F00060F6
:1003A00008B10C20C7E704F0806008B10D20C2E757
:1003B00004F0807008B10E20BDE704F4000008B11D
:1003C0000F20B8E704F4800008B11020B3E704F46C
:1003D000001008B11120AEE704F4801008B112201B
:1003E000A9E704F4002008B11320A4E704F4802056
:1003F00008B114209FE704F4003008B115209AE7F3
:1004000004F4804008B1182095E704F4005008B1C6
:10041000192090E704F0080008B11A208BE738464D
:1004200089E70000342C014008E0FFFD70B500258D
:100430001048046801E00F48046804F045000028F3
:10044000F9D004F0040028B10325042001F0F6FCE3
:10045000284670BD04F0010028B10125012001F0FB
:10046000EDFC2846F5E740F2FF5001F0E7FC284696
:10047000EFE70000342C014070B500250B480468FC
:1004800001E00A48046804F045000028F9D004F0AF
:10049000040028B10325042001F0D0FC284670BDDB
:1004A00040F2FF5001F0CAFC2846F8E7342C014026
:1004B0002DE9F04106460F464FF000082248056836
:1004C00001E02148056805F045000028F9D005F055
:1004D000040038B14FF00308042001F0AFFC40469F
:1004E000BDE8F08105F0010030B14FF001080120B6
:1004F00001F0A4FC4046F3E701F0B8FCB04203D0A1
:100500004FF010084046EBE740F2FF5001F096FC38
:10051000002001F0C5FC044604F4604018B9200C2A
:1005200038804046DCE704F4005008B11320D7E7D8
:1005300004F4804008B11020D2E704F4004008B170
:100540000F20CDE74046CBE7342C014000B58FB0FB
:100550000121480501F09AFB1D4800F08DF80020AC
:1005600000901C4801904FF0D04002900020039072
:100570004FF478400490002005904FF4806006907E
:1005800040000790800008904011099040020A90B6
:1005900004200B9003200C9000200D900E90002260
:1005A0000D490B4800F01FF90121094800F010F92E
:1005B00001221021064800F055F96946044800F070
:1005C0006FF90121024800F04BF80FB000BD0000A8
:1005D000586002400C3800400000086810B5064919
:1005E000064800F00DF9012805D1054908600249C7
:1005F000024800F01BF810BD20800010106002407F
:100600001800002010B50649064800F0F9F8012846
:1006100005D1054908600249024800F007F810BDFD
:100620000080001858600240140000200246094B68
:100630009A4201D2084801E00648103801F0005300
:100640001BB1064B0B40C36002E0044B0B408360C0
:100650007047000010640240006002407D0F7D0F73
:1006600021B1026842F00102026003E0026822F058
:100670000102026070470000016821F00101016081
:100680000021016041608160C160016121214161FF
:100690004A49884204D13D21484A103A91608CE091
:1006A00046491831884205D14FF47461434A103AE3
:1006B000916082E041493031884205D14FF4741194
:1006C0003E4A103A916078E03C494831884205D171
:1006D0004FF07461394A103A91606EE037496031E9
:1006E000884204D13649354A103AD16065E0334931
:1006F0007831884204D13349304A103AD1605CE005
:100700002E499031884204D12F492C4A103AD160A9
:1007100053E02A49A831884205D14FF03D51274A7C
:10072000103AD16049E02949884204D13D21274A45
:10073000083A116041E025491831884205D14FF44B
:100740007461224A083A116037E02049303188420A
:1007500005D14FF474111D4A083A11602DE01B4970
:100760004831884205D14FF07461184A083A116047
:1007700023E016496031884204D11149134A121FFF
:1007800011601AE011497831884204D10D490F4AAD
:10079000121F116011E00D499031884204D10A49BD
:1007A0000A4A121F116008E00849A831884204D1A2
:1007B0004FF03D51054A121F116070471060024012
:1007C0003D000020400F002000003D20106402404A
:1007D00021B1026842F48022026003E0026822F440
:1007E00080220260704722B1036843F40023036053
:1007F00003E0036823F400230360016170470000F5
:1008000070B50246002000240025124EB24201D2EB
:10081000114B01E00F4B103B104E0E4036B11E261F
:1008200006EAD124166806EA040502E0566906F0D5
:10083000800501F000560EB15C6800E01C68084EAF
:10084000344004EA010616B10DB1012000E0002099
:1008500070BD000010640240006002403C0F3C0F7D
:100860007D0F7D0F10B501F080034BB122B14369BC
:1008700043F08003436103E0436923F08003436155
:1008800080290BD02AB1036801F01E0423430360C2
:1008900004E0036801F01E04A343036010BD0000E0
:1008A00010B500220268134B1A40CC680B68234332
:1008B0004C6923438C692343CC6923430C6A23434B
:1008C0004C6A23438C6A23434C6B23438C6B234336
:1008D0001A430260426922F00702D1E90B34234334
:1008E0001A4342610B6943604B6883608B68C36045
:1008F00010BD00003F801CF0704710B586B000248A
:1009000000200190132002904020039000200490CA
:100910004FF48060059001A801F0E6FA1320FFF77C
:10092000F5FC044614B1204606B010BD00BFFBE73D
:1009300030B585B005462924002001F0B1FA00F059
:10094000007018B10E24204605B030BD012D48D1ED
:100950002A48009006200190402002900020039039
:10096000A8020490684601F0BFFA0620FFF7CEFC0B
:1009700004460CB12046E7E70A2001F057FD204865
:1009800000900620019040200290002003904FF438
:1009900080600490684601F0A7FA0620FFF7B6FCD5
:1009A0000446642001F05EFD0CB12046CCE70A202D
:1009B00001F03CFD13480090062001904020029079
:1009C000002003904FF480600490684601F08CFA98
:1009D0000620FFF79BFC04460CB12046B4E72046F6
:1009E000B2E73720FFF792FC04460CB12046ABE794
:1009F0000CB12046A8E72046A6E700000008BB038C
:100A00000001B9030002B70330B587B004460025E2
:100A1000B4F5006F03D12725284607B030BDB4F5E3
:100A2000805F14D10120FFF783FF054605BB7620C8
:100A30008DF8180000200190029003904FF4805030
:100A400004900020059001A801F036FA10E0002083
:100A5000FFF76EFF05465DB976208DF8180000207F
:100A60000190029003900490059001A801F024FAEF
:100A70002846D2E7F0B504460D46002000219A4EE4
:100A8000367884F84E62A4F84C322E68310E8E0906
:100A90002670C1F38306667001F00306A6702E6807
:100AA000C6F30741E1702E88C6F30721217129782A
:100AB00061716E68310E0E01E6806E68C6F3074103
:100AC000E68846EA1116E68001F00F062672AE8827
:100AD000C6F30721CE096672C1F38016A672C1F370
:100AE0004016E672C1F300162673002666738E0761
:100AF000360DE6812979E68946EA8106E681AE6807
:100B0000310EE68946EA9116E681C1F3C2062674E3
:100B100001F007066674AE68C6F307414E09A67475
:100B2000C1F38206E6748E07760F26752E89C6F30A
:100B30000721267D46EAD1162675277A0126BE4072
:100B4000C4F8486294F85361370694F8526147EA52
:100B5000064794F8516147EA062694F850713E43DF
:100B60001534D4F833727E430027C4F82B62C4F8DE
:100B70002F72C1F3801626708E06760E6670297A63
:100B8000667846EAD116667001F07F06A670EE68B8
:100B9000310ECE09E670C1F341162671C1F382060B
:100BA00066718E07360FA671EE68C6F30741A67907
:100BB00046EA9116A671C1F34016E6710026267228
:100BC00001F001066672AE89C6F30721CE09A6724E
:100BD000C1F38016E672C1F340162673C1F3001606
:100BE0006673C1F38106A67301F00306E673297BE1
:100BF0004E082674012666741668310E84F81312A6
:100C0000153C1668C6F307418F0840F22926375570
:100C100001F00307761C37551688C6F3072140F20A
:100C20002B26315511780F06761C37515668310E38
:100C30004FF40B76365946EA01474FF40B7637519D
:100C40005668C6F307414FF40B76365946EA01273A
:100C50004FF40B7637519688C6F307214FF40B7685
:100C600036590E434FF40B773E5111790F024FF472
:100C70000C7637539668310E4FF40C7631539668E4
:100C8000C6F3074140F2322631551689C6F30721D3
:100C90000F064FF40D763751117A365946EA01475F
:100CA0004FF40D763751D668310E4FF40D76365924
:100CB00046EA01274FF40D763751D668C6F307414F
:100CC0004FF40D7636590E434FF40D773E51968909
:100CD000C6F307213E1D3153117B4F08B61C375513
:100CE0000127761C3755F0BD3000002008B50020E4
:100CF000009000F027F901F0ADF800F0ABF800909B
:100D00009DF8000010B19DF8000008BD0A4800F0F1
:100D100015F800909DF8000010B19DF80000F4E770
:100D20009DF8000020B94FF48050FFF76DFE009051
:100D30009DF80000E9E700003800002030B58FB0D2
:100D40000546002400200690079008900990029024
:100D50000390049005900120019001F099F818B9D2
:100D6000252420460FB030BD00200A9002200B90B1
:100D7000C0200C9000200D904FF480600E900AA8C7
:100D800001F0B2F8FFF752FB04460CB12046E9E748
:100D9000002001F085F80290042001F081F8039012
:100DA000082001F07DF804900C2001F079F80590FE
:100DB0004FF480300A9003200B9040200C900020CC
:100DC0000D904FF480600E900AA801F08DF801A9F3
:100DD0000320FFF76DFB04460CB12046C2E74FF439
:100DE00080300A9009200B90C0200C9000200D90BC
:100DF0004FF480600E900AA801F076F8FFF716FB1A
:100E000004460CB12046ADE7002001F049F80690F9
:100E1000042001F045F80790082001F041F80890FF
:100E20000C2001F03DF809904FF4803000F072F88A
:100E300004460CB1204695E7BDF8043002AA06A985
:100E40002846FFF717FE04460CB120468AE7002427
:100E5000204687E730B58DB00020019000240025A2
:100E6000FF208DF8300000200790089009904FF483
:100E700080500A9000200B9007A801F01DF8032075
:100E800001F048F8012000F0DFFF002002900390FD
:100E9000049005904FF48060069002A801F024F8B9
:100EA000FFF71DFA01909DF8040018B19DF80400A9
:100EB0000DB030BD00BF16480290012003904020C5
:100EC0000490002005904FF48060069002A801F085
:100ED0000BF8FFF7D1FA0190641C642C03D29DF843
:100EE00004000028E7D10A48029001200390402026
:100EF0000490002005904FF48060069002A800F056
:100F0000F3FFFFF7B9FA01909DF80400D0E7000065
:100F10008080FF0030B585B004460025009407208E
:100F2000019040200290002003904FF480600490D4
:100F3000684600F0D9FF0720FFF7E8F90546284684
:100F400005B030BD1CB501210E2000F09FFE01212F
:100F5000C80200F0DBFE0C2208213A4800F0ACFA8F
:100F60000C220921374800F0A7FA0C220A21354843
:100F700000F0A2FA0C220B21324800F09DFA0C225C
:100F80000821314800F098FA0C2209212E4800F07F
:100F900093FA0C2206212B4800F08EFA0C2207212E
:100FA000284800F089FA0C221146264800F084FAFD
:100FB0000C220221254800F07FFA4FF47C6000905B
:100FC00003208DF8050002208DF8040000208DF824
:100FD000060069461B4800F027FA4FF44070009065
:100FE00003208DF8050002208DF8040000208DF804
:100FF00006006946144800F017FA04200090032008
:101000008DF8050002208DF8040001208DF80600FF
:1010100000208DF8070069460C4800F005FA4FF4EF
:101020008050009003208DF8050002208DF8040008
:1010300000208DF806008DF807006946014800F091
:10104000F3F91CBD0008024000040240000C0240FD
:1010500051B18200A2F1C042126842F00103820045
:10106000A2F1C042136009E08200A2F1C0421268FE
:10107000034B1A408300A3F1C0431A60704700007D
:10108000FEFF0F00D0E901121143C268114302694B
:1010900011434269114382691143C2691143026AD3
:1010A0001143426A1143826A1143C26A1143026BBF
:1010B000114302689200A2F1C042116081680829C0
:1010C0000BD101688900A1F1C041096841F04002DB
:1010D00001688900A1F1C0410A60416B0968426B57
:1010E000526841EA0211426B926841EA0221426B66
:1010F000928941EA0241426B128A41EA0251426BF3
:10110000127D41EA0261426B926911430268521CEE
:101110009200A2F1C0421160C16AB1F5804F1BD1AB
:10112000816B0968826B526841EA0211826B926896
:1011300041EA0221826B128A41EA0251826B127DDE
:1011400041EA0261826B9269114302689200A2F146
:10115000C042C2F8041107E06FF0704201688900D4
:10116000A1F1C041C1F804217047000000B599B059
:101170000121084600F09AFD0121082000F086FDBB
:101180000121102000F082FD0121202000F07EFDD1
:101190000121402000F07AFD4FF23F00179002201D
:1011A0008DF8600003208DF8610000208DF862004A
:1011B0008DF8630017A9984800F036F940F23F40D7
:1011C000179002208DF8600003208DF86100002048
:1011D0008DF862008DF8630017A9904800F024F99B
:1011E0004FF63370179002208DF8600003208DF8C1
:1011F000610000208DF862008DF8630017A988480F
:1012000000F012F94FF68B70179002208DF86000F5
:1012100003208DF8610000208DF862008DF86300D6
:1012200017A9804800F000F90C2204217C4800F046
:1012300043F90C2205217A4800F03EF90C220021E6
:10124000784800F039F90C220121764800F034F991
:101250000C220A21714800F02FF90C220E2170484F
:1012600000F02AF90C220F216D4800F025F90C221C
:1012700000216B4800F020F90C220121684800F0A1
:101280001BF90C220721674800F016F90C220821EF
:10129000644800F011F90C220921624800F00CF9B1
:1012A0000C220A215F4800F007F90C220B215D484F
:1012B00000F002F90C2211465A4800F0FDF80C2209
:1012C0000D21584800F0F8F80C220E21554800F086
:1012D000F3F80C220F21534800F0EEF80C220821FD
:1012E0004F4800F0E9F80C2209214D4800F0E4F8DD
:1012F0000C220A214A4800F0DFF80C22002146485F
:1013000000F0DAF80C220121434800F0D5F80C2255
:101310000221414800F0D0F80C2203213E4800F0A1
:10132000CBF80C2204213C4800F0C6F80C22052121
:10133000394800F0C1F80C221146374800F0BCF8DB
:101340000C220D21344800F0B7F80C220E2132484F
:1013500000F0B2F80C220F212F4800F0ADF80C225B
:1013600000212E4800F0A8F80C2201212B4800F0A3
:10137000A3F80C220221294800F09EF80C22032138
:10138000264800F099F80C220421244800F094F833
:101390000C220521214800F08FF80C220B21204857
:1013A00000F08AF80C2211461D4800F085F80C2246
:1013B0000D211B4800F080F80C220321194800F091
:1013C0007BF80020019002900820039000200490F8
:1013D00005900690079004200890002009900A903C
:1013E00010200B9000200C900E900D900F901090FC
:1013F0004FF480501190002012901390149001A887
:101400001590169008A8FFF73DFE01210420FFF774
:101410001FFE19B000BD0000001402400018024079
:10142000000C024000100240F0B50A4600210023E3
:10143000002400BF3DE0012505FA01F3156805EA27
:1014400003049C4234D105684F000326BE40B543D7
:10145000056015794E00B54006683543056015797D
:10146000012D02D01579022D16D185684F00032673
:10147000BE40B543856055794E00B540866835431A
:101480008560456801268E40B5434560456896797C
:101490008E40B6B235434560C5684F000326BE4056
:1014A000B543C560D5794E00B540C6683543C560C3
:1014B000491C1029BFD3F0BDF0B5002300244D070F
:1014C000ED0E02FA05F3CE1000F1200555F8265076
:1014D0004E07F70E0F26BE40B543CF1000F1200691
:1014E00046F82750CE1000F1200555F8265045EA61
:1014F0000304CE1000F1200545F82640F0BD01831D
:10150000704700BFFEE7000000B587B00121022050
:1015100000F0BCFB0121880500F0D8FB0121880503
:1015200000F0D4FB00214FF4800000F0DFFB4FF40B
:101530004060059002208DF818008DF819000120F8
:101540008DF81A0000208DF81B0005A91448FFF73C
:101550006BFF04220A211248FFF7AEFF04220B2181
:101560000F48FFF7A9FF0020ADF808004BF6FF7009
:10157000ADF80A008820ADF80C004FF48060ADF89B
:101580000E000001ADF810000648019001A90648C0
:1015900000F0A8F80121044800F063F807B000BD8E
:1015A00000040240A08601000058004070B50446C7
:1015B0000E46154600BF4FF400311C4800F075F888
:1015C0000028F8D10121194800F057F800BF184948
:1015D000164800F031F80028F9D0002221461348BF
:1015E00000F0F4F800BF1349104800F025F8002877
:1015F000F9D031460D4800F0F1F800BF0D49891CC3
:101600000A4800F019F80028F8D02946074800F0E9
:10161000E5F800BF0749891C044800F00DF80028D0
:10162000F8D00121014800F034F870BD00580040A6
:10163000010003008200070070B502460024002567
:1016400000230020958A138B1B0445EA030626F02D
:101650007F4404EA01068E4201D1012000E000200F
:1016600070BD21B1028842F00102028004E00288CC
:101670004FF6FE731A400280704721B1028842F48F
:101680008072028004E002884FF6FF631A400280F5
:10169000704721B1028842F40072028004E002889F
:1016A0004FF6FF531A40028070470CB502460020E7
:1016B00000230193009300920B0F019321F07F41CF
:1016C000019B1BB1009B1433009303E0090C009BAA
:1016D00018330093009B1B680B400BB1012000E006
:1016E00000200CBD2DE9FF4704460D460026B146FB
:1016F0000427DFF8CC80A6884FF6C0700640684605
:1017000000F028FBDDF808802E48B8FBF0F01FFA47
:1017100080F946EA0906A68020884FF6FE71084047
:10172000208000262849286888420CD82868400074
:10173000B8FBF0F087B2042F00DA04273E4309F12A
:101740000100208427E0E8884BF6FF71884206D12B
:10175000286800EB4000B8FBF0F087B209E0286889
:1017600000EBC00101EB0010B8FBF0F087B247F4CA
:101770008047C7F30B0008B947F0010747F4004062
:1017800006434FF4967009FB00F04FF47A7190FB1A
:10179000F1F0401C2084A683208840F001002080C6
:1017A00026884FF6F5300640A88869890843064325
:1017B0002680A889298908432081BDE8FF87000089
:1017C00000127A0040420F00A086010012B141F0E1
:1017D000010101E001F0FE010182704701827047C2
:1017E00021B1828B42F48062828304E0828B4FF6C7
:1017F000FF331A408283704700B587B00121032070
:1018000000F044FA0121880300F060FA0121880306
:1018100000F06CFA00214FF4804000F067FA0121DB
:10182000C80300F053FA0121C80300F05FFA002159
:101830004FF4004000F05AFA4BF2280005900220C5
:101840008DF818008DF8190000208DF81A0001207D
:101850008DF81B0005A93C48FFF7E6FD4FF400405A
:10186000059002208DF818008DF8190000208DF8E1
:101870001A0001208DF81B0005A93448FFF7D4FD9C
:10188000062203213048FFF717FE062205212E48C5
:10189000FFF712FE05220C212B48FFF70DFE052253
:1018A0000D212948FFF708FE05220F212648FFF7E2
:1018B00003FE06220F212548FFF7FEFD244800F015
:1018C00039FB244800F036FB4FF48070ADF804007B
:1018D0002020ADF806000020ADF80800ADF80A00A1
:1018E0004FF47A5003900020ADF8100001A9184879
:1018F00000F032F84FF48070ADF804002020ADF80D
:1019000006000020ADF80800ADF80A004FF47A5048
:1019100003900020ADF8100001A90E4800F01CF85B
:10192000012211460A4800F0FBFA0122114609483B
:1019300000F0F6FA01210648FFF752FF01210548A1
:10194000FFF74EFF07B000BD000402400000024058
:1019500000380040003C00402DE9F04F00250223F4
:1019600000244FF0010900220026002794469046EB
:10197000B0F81CA04FF2400B0AEA0B0AA0F81CA01A
:101980004FF0020AA0F820A0858BD1F808A0BAF188
:10199000020F01D100BF82E0B1F804A0BAF1000F3C
:1019A00002D14FF0010901E04FF00209DFF834A144
:1019B000DAF800A00AF4000ABAF1000F09D0DFF843
:1019C00024A1DAF800A02AF4000ADFF818B1CBF855
:1019D00000A0DFF810A10AF17C0ADAF800A0CAF32F
:1019E000881CDFF800A10AF17C0ADAF800A0CAF32B
:1019F0000278DFF8F0A0AAF1040ADAF800A00AF0F1
:101A00003F07DFF8E0A0AAF1040ADAF800A00AF420
:101A1000800ABAF5800F08D1DFF8CCA0BAFBF7FA3C
:101A20000AFB0CFABAFBF8F607E0DFF8C0A0BAFB35
:101A3000F7FA0AFB0CFABAFBF8F6B1F806A0BAF509
:101A4000007F0ED14FEA162A0AEB8A0A4FEA4A0AA9
:101A5000D1F808B0BAFBFBFA0AF1050A1FFA8AF2BC
:101A60000FE04FEA491AB6FBFAFA0AEB8A0A4FEA84
:101A70004A0AD1F808B0BAFBFBFA0AF1050A1FFAC4
:101A80008AF24FF00A0AB2FBFAF202F00104A2EB6A
:101A9000040ACAF34F034FF6FF7A0AEA0424022B22
:101AA00001DBFF2B01DD02230024B1F806A04AEA86
:101AB000040A4AEA030AA0F820A0B1F804A0B1F889
:101AC0000CB04AEA0B0AB1F802B04AEA0B0AB1F8C4
:101AD00000B04AEA0B0A4AF4006A4AEA050585831F
:101AE000BDE8F08F0838024000127A000024F400AC
:101AF0001CB50121412000F0C9F84FF4C0500090FE
:101B000001208DF8040000208DF8060003208DF8D8
:101B1000050001208DF8070069461048FFF784FC96
:101B20004FF48070009001208DF8040000208DF8A3
:101B3000060003208DF8050001208DF80700694696
:101B40000748FFF771FC4FF4C0510448FFF7D7FC7A
:101B50004FF480710248FFF7D2FC1CBD0000024028
:101B60000018024000BFFEE7704708B500214FF0A3
:101B7000006000F07FF84FF4E06000F071F80E2094
:101B80008DF8000000208DF801008DF80200012082
:101B90008DF80300684600F027F84FF4E06000F08D
:101BA0005FF80B208DF8000000208DF80100012067
:101BB0008DF802008DF80300684600F015F84FF428
:101BC000E06000F04DF831208DF8000000208DF825
:101BD000010002208DF8020001208DF80300684604
:101BE00000F002F808BD000070B5002100230F22AC
:101BF000C4781CB3174C246804F4E064C4F5E064B2
:101C0000C4F30721C1F10404E3B20A4144789C40C3
:101C1000E1B28478144021430C07210E0E4C057864
:101C20006155047804F01F050124AC4005786D115E
:101C3000AD0005F1E025C5F8004109E0047804F0A5
:101C40001F050124AC40054D0678761145F8264065
:101C500070BD00000CED00E000E400E080E100E079
:101C600002490143024A1160704700000000FA0572
:101C70000CED00E0024A0A400243024B1A60704732
:101C800080FFFF1F08ED00E07047000029B1064A01
:101C900012680243044B1A6004E0034A126882434C
:101CA000014B1A60704700003038024029B1064AE3
:101CB00012680243044B1A6004E0034A126882432C
:101CC000014B1A60704700003838024029B1064ABB
:101CD00012680243044B1A6004E0034A126882430C
:101CE000014B1A60704700004038024029B1064A93
:101CF00012680243044B1A6004E0034A12688243EC
:101D0000014B1A60704700002038024029B1064A92
:101D100012680243044B1A6004E0034A12688243CB
:101D2000014B1A60704700004438024029B1064A4E
:101D300012680243044B1A6004E0034A12688243AB
:101D4000014B1A60704700002438024010B500F0C3
:101D5000D7F910BDF0B5002100220024022500268D
:101D60000223324F3F6807F00C0121B1042905D04E
:101D7000082937D105E02E4F076036E02D4F076068
:101D800033E02A4F3F1F3F68C7F38056274F3F1F5E
:101D90003F6807F03F036EB1264FB7FBF3F7DFF85C
:101DA0008CC0ACF1040CDCF800C0CCF3881C07FB41
:101DB0000CF40CE01E4FB7FBF3F7DFF870C0ACF18A
:101DC000040CDCF800C0CCF3881C07FB0CF4174FA4
:101DD0003F1F3F68C7F301477F1C7D00B4FBF5F749
:101DE000076002E0124F076000BF00BF0F4F3F685F
:101DF00007F0F0010909104F7A5C0768D740476087
:101E00000A4F3F6807F4E051890A0B4F7A5C476834
:101E1000D7408760054F3F6807F46041490B064F84
:101E20007A5C4768D740C760F0BD000008380240C0
:101E30000024F40000127A001C0000200149086010
:101E400070470000382C01400149086070470000CD
:101E5000A080254210B50121C802FFF767FF0021CD
:101E60004FF40060FFF762FF10BD000001480068FA
:101E7000C0B27047102C014001460020034A12688E
:101E80000A400AB1012000E000207047342C0140D4
:101E90000248006800F0030070470000002C014079
:101EA00008B50146002000900248084400900098C0
:101EB000006808BD142C014000210A4A116847F649
:101EC000FF629143027D83681A4343681A43C368E3
:101ED0001A4303681A4303691A431143014A116004
:101EE00070470000042C01400021094B02681A6071
:101EF0001A1D11686FF30A01D0E901231A43C36860
:101F00001A4303691A431143014A121D11607047B5
:101F1000082C01400149086070470000002C014076
:101F20001AB183880B43838002E083888B438380CC
:101F30007047000010B504462448844208D10121AE
:101F40008014FFF7F3FE0021A014FFF7EFFE3CE042
:101F50001F48844208D101210014FFF7C7FE002169
:101F60002014FFF7C3FE30E01A48844208D1012153
:101F7000C013FFF7BBFE0021E013FFF7B7FE24E01C
:101F80001548844208D101214014FFF7CFFE0021FB
:101F90006014FFF7CBFE18E01048844209D10121FC
:101FA0000805FFF7C3FE00214FF48010FFF7BEFEC7
:101FB0000BE00B48844208D101214805FFF7B6FE2B
:101FC00000214FF40010FFF7B1FE10BD00300140BA
:101FD00000380040003C0040003401400050014007
:101FE00000540140704700000CB5002001900090A3
:101FF0003448006840F480303249086000BF3148FE
:10200000006800F4003000900198401C0190009896
:1020100018B90198B0F5A04FF1D12A48006800F432
:10202000003010B10120009001E0002000900098E5
:10203000012846D123484030006840F080502149B3
:10204000403108602048006840F440401E49086064
:102050001C48083000681B490831086008460068C1
:1020600040F4004008600846006840F4A050086052
:102070001648091F0860081F006840F08070091F9B
:10208000086000BF0F48006800F000700028F9D019
:1020900040F205700E4908600A480830006820F0D8
:1020A00003000849083108600846006840F0020053
:1020B000086000BF03480830006800F00C000828E2
:1020C000F8D10CBD003802400070004008544007B1
:1020D000003C0240042808D14FF0E021096941F09A
:1020E00004014FF0E022116107E04FF0E02109699F
:1020F00021F004014FF0E0221161704770470000A9
:1021000010B51548006840F4700013490860134882
:10211000006840F001001149086000200F490831B3
:1021200008600E4800680E4908400C4908600D48D8
:10213000091D0860081F006820F48020091F08603E
:10214000002006490C310860FFF74EFF4FF0006099
:1021500001498039086010BD88ED00E00038024078
:10216000FFFFF6FE1030002401F40072B2F5007F8C
:1021700000D100BFCA430280704721B1828942F476
:102180000052828104E082894DF6FF731A408281F9
:102190007047000010B504463248844208D101213E
:1021A0001020FFF7C3FD00211020FFF7BFFD57E00F
:1021B0002D48844209D101214804FFF797FD0021F1
:1021C0004FF40030FFF792FD4AE02848844209D1DD
:1021D00001218804FFF78AFD00214FF48020FFF7DA
:1021E00085FD3DE02248844209D10121C804FFF762
:1021F0007DFD00214FF40020FFF778FD30E01D4801
:10220000844209D101210805FFF770FD00214FF438
:102210008010FFF76BFD23E01748844208D10121AD
:102220002020FFF783FD00212020FFF77FFD17E02E
:102230001248844209D101218807FFF757FD002188
:102240004FF08040FFF752FD0AE00D48844207D16D
:1022500001214005FFF74AFD00216005FFF746FD1B
:1022600010BD000000100140004400400048004044
:10227000004C004000500040001401400078004035
:10228000007C00402DE9FF4705460E460024A1468C
:1022900000BFA046B08900B100BF2C8A24F440548E
:1022A000F08804432C82AC8941F20C608443B088EE
:1022B00031890843718908430443AC81AC8A24F412
:1022C0004074B0890443AC826846FFF743FD204860
:1022D000854202D01F48854202D1DDF80C9001E012
:1022E000DDF80890A88900F4004040B109EBC9006E
:1022F00000EB091031684900B0FBF1F707E009EB8A
:10230000C90000EB091031688900B0FBF1F76420C7
:10231000B7FBF0F004012009642101FB1078A889C3
:1023200000F4004040B1322000EBC800B0FBF1F0F7
:1023300000F00700044308E0322000EB081064219D
:10234000B0FBF1F000F00F0004432C81BDE8FF87E3
:10235000001001400014014000BFFEE700B587B047
:1023600001210846FFF792FC01211020FFF7CEFC67
:10237000072209211C48FFF79FF807220A211A4863
:10238000FFF79AF84FF4C060059002208DF818000E
:102390008DF8190000208DF81A0001208DF81B001F
:1023A00005A91148FFF740F81048FFF7F3FE4FF476
:1023B000E13001900020ADF80800ADF80A00ADF85A
:1023C0000C00ADF810000C20ADF80E0001A9074874
:1023D000FFF758FF40210548FFF7C6FE01210348DB
:1023E000FFF7CBFE07B000BD000002400010014027
:1023F00010B504466FF00400FFF76CFEE11704EB24
:102400005171C1F3C701074A11701046007800EB03
:102410004001C1EBC0104FF6FF7101EAC000024954
:10242000088010BD2C0000202E00002070B504464E
:102430004FF4077094FBF0F0C6B24FF4077094FBB2
:10244000F0F100FB114085B205E04FF4077000F099
:102450002FF8701EC6B2002EF7D115B1284600F035
:1024600027F870BD0146114A12784A434FF0E02325
:102470005A6100229A611A46126942F001021A61F9
:1024800000BF4FF0E022106900F001021AB100F421
:102490008032002AF5D04FF0E022126922F00102CA
:1024A0004FF0E0231A6100229A6170472C0000204F
:1024B0000146114A12884A434FF0E0235A61002234
:1024C0009A611A46126942F001021A6100BF4FF088
:1024D000E022106900F001021AB100F48032002AF3
:1024E000F5D04FF0E022126922F001024FF0E02314
:1024F0001A6100229A6170472E000020A820FFF781
:1025000077FFFFF7F5FAFFF721FCFEF72FFEFEF746
:102510001DF8FEF7F9FF012250218820FFF746F849
:10252000132251218820FFF741F8402252218820B0
:10253000FFF73CF80F2253218820FFF737F8FFF709
:102540005BF9FFF70BFFFFF710FB01200F49086055
:102550000F49C1F8AC020F490860FEF7C7FB0E49EE
:1025600008700846007858B100200849086001202A
:102570000749C1F8AC02074908606420FFF756FF1D
:10258000FEF7BBF90449087000BFFEE7B002404205
:1025900000004042A0024342100000204FF0407073
:1025A000E1EE100A70470000C82500080000002076
:1025B00038000000C4010008002600083800002090
:1025C000B0080000E001000800000000000000006A
:1025D00000000000000000000000000000000000FB
:1025E00000000000000000000102030401020304D7
:1025F00006070809000000000000000000000000BD
:040000050800018965
:00000001FF
